BL51 BANKED LINKER/LOCATER V6.22.2.0                                                    08/12/2021  12:55:31  PAGE 1


BL51 BANKED LINKER/LOCATER V6.22.2.0, INVOKED BY:
C:\KEIL_V5\C51\BIN\BL51.EXE main.obj, STARTUP_AiP8F1016.obj, calibration.obj, flash.obj, motor.obj, temperature.obj, tes
>> t.obj, timer.obj TO AD RAMSIZE (256) CODE (0X0000-0X3FFF) XDATA (0X0000-0X01FF)


MEMORY MODEL: LARGE


INPUT MODULES INCLUDED:
  main.obj (MAIN)
  STARTUP_AiP8F1016.obj (?C_STARTUP)
  calibration.obj (CALIBRATION)
  flash.obj (FLASH)
  motor.obj (MOTOR)
  temperature.obj (TEMPERATURE)
  test.obj (TEST)
  timer.obj (TIMER)
  C:\KEIL_V5\C51\LIB\C51L.LIB (?C_INIT)
  C:\KEIL_V5\C51\LIB\C51L.LIB (?C?CLDOPTR)
  C:\KEIL_V5\C51\LIB\C51L.LIB (?C?IMUL)
  C:\KEIL_V5\C51\LIB\C51L.LIB (?C?UIDIV)
  C:\KEIL_V5\C51\LIB\C51L.LIB (?C?SIDIV)
  C:\KEIL_V5\C51\LIB\C51L.LIB (?C?IILDX)
  C:\KEIL_V5\C51\LIB\C51L.LIB (?C?SLCMP)
  C:\KEIL_V5\C51\LIB\C51L.LIB (?C?SLSHR)
  C:\KEIL_V5\C51\LIB\C51L.LIB (?C?LSTXDATA)
  C:\KEIL_V5\C51\LIB\C51L.LIB (?C?LSTKXDATA)
  C:\KEIL_V5\C51\LIB\C51L.LIB (?C?ICALL)


LINK MAP OF MODULE:  AD (MAIN)


            TYPE    BASE      LENGTH    RELOCATION   SEGMENT NAME
            -----------------------------------------------------

            * * * * * * *   D A T A   M E M O R Y   * * * * * * *
            REG     0000H     0008H     ABSOLUTE     "REG BANK 0"
            IDATA   0008H     0001H     UNIT         ?STACK

            * * * * * * *  X D A T A   M E M O R Y  * * * * * * *
            XDATA   0000H     0050H     UNIT         ?XD?MAIN
            XDATA   0050H     0012H     UNIT         _XDATA_GROUP_
            XDATA   0062H     0010H     UNIT         ?XD?TEMPERATURE
            XDATA   0072H     0002H     UNIT         ?XD?FLASH
            XDATA   0074H     0001H     UNIT         ?XD?TEST
            XDATA   0075H     0001H     UNIT         ?XD?TIMER

            * * * * * * *   C O D E   M E M O R Y   * * * * * * *
            CODE    0000H     0003H     ABSOLUTE     
            CODE    0003H     0003H     ABSOLUTE     
            CODE    0006H     009AH     UNIT         ?C_C51STARTUP
            CODE    00A0H     0013H     UNIT         ?PR?WRITEFLASH?FLASH
            CODE    00B3H     0003H     ABSOLUTE     
            CODE    00B6H     0406H     UNIT         ?PR?DOBALANCE?MAIN
            CODE    04BCH     03ADH     UNIT         ?PR?READAD?TEMPERATURE
            CODE    0869H     02F9H     UNIT         ?PR?BALANCESETUP?MAIN
            CODE    0B62H     0184H     UNIT         ?CO?MAIN
BL51 BANKED LINKER/LOCATER V6.22.2.0                                                  08/12/2021  12:55:31  PAGE 2


            CODE    0CE6H     0157H     UNIT         ?PR?POWERISOFF?MAIN
            CODE    0E3DH     014DH     UNIT         ?C?LIB_CODE
            CODE    0F8AH     0147H     UNIT         ?PR?TIMER_ISR?MAIN
            CODE    10D1H     0137H     UNIT         ?PR?_LEDFLASH?MAIN
            CODE    1208H     00EFH     UNIT         ?PR?_MOTOR?MOTOR
            CODE    12F7H     00E9H     UNIT         ?PR?MAIN?MAIN
            CODE    13E0H     00E1H     UNIT         ?PR?TIMERPOLL?TIMER
            CODE    14C1H     00E0H     UNIT         ?PR?REALTIME?MAIN
            CODE    15A1H     00C4H     UNIT         ?PR?PCBTEST1?TEST
            CODE    1665H     00BCH     UNIT         ?PR?SETPORTS?MAIN
            CODE    1721H     00B7H     UNIT         ?PR?MOTOR_ISR?MAIN
            CODE    17D8H     0092H     UNIT         ?PR?READMOTORCURRENTAD?TEMPERATURE
            CODE    186AH     008FH     UNIT         ?PR?ENDSTOPDRIVER?MAIN
            CODE    18F9H     008FH     UNIT         ?PR?MOTORMOVE?MOTOR
            CODE    1988H     0089H     UNIT         ?C_INITSEG
            CODE    1A11H     0078H     UNIT         ?CO?TEMPERATURE
            CODE    1A89H     0069H     UNIT         ?PR?_TIMERSTART?TIMER
            CODE    1AF2H     0066H     UNIT         ?PR?_SENDRAWPIN?MAIN
            CODE    1B58H     0063H     UNIT         ?PR?_SENDRAWTEMP?MAIN
            CODE    1BBBH     005CH     UNIT         ?PR?_TIMERRESET?TIMER
            CODE    1C17H     0041H     UNIT         ?PR?_SENDSTRING?MAIN
            CODE    1C58H     003CH     UNIT         ?PR?_MOVETOPOSITION?MOTOR
            CODE    1C94H     003CH     UNIT         ?PR?PCBTEST?TEST
            CODE    1CD0H     002AH     UNIT         ?PR?READMAXCOUNT?FLASH
            CODE    1CFAH     002AH     UNIT         ?PR?READVOP?FLASH
            CODE    1D24H     002AH     UNIT         ?PR?READCAL?FLASH
            CODE    1D4EH     002AH     UNIT         ?PR?READONTIMES?FLASH
            CODE    1D78H     002AH     UNIT         ?PR?READMOTORPOSITION?FLASH
            CODE    1DA2H     002AH     UNIT         ?PR?READLKBP?FLASH
            CODE    1DCCH     0027H     UNIT         ?PR?_SENDBYTE?MAIN
            CODE    1DF3H     0027H     UNIT         ?PR?ERASEDATA?FLASH
            CODE    1E1AH     0022H     UNIT         ?PR?_SENDPIN?MAIN
            CODE    1E3CH     001AH     UNIT         ?PR?REBOOT?FLASH
            CODE    1E56H     0019H     UNIT         ?PR?_WRITEMAXCOUNT?FLASH
            CODE    1E6FH     0019H     UNIT         ?PR?_WRITEVOP?FLASH
            CODE    1E88H     0019H     UNIT         ?PR?_WRITECAL?FLASH
            CODE    1EA1H     0019H     UNIT         ?PR?_WRITEONTIMES?FLASH
            CODE    1EBAH     0019H     UNIT         ?PR?_WRITEMOTORPOSITION?FLASH
            CODE    1ED3H     0019H     UNIT         ?PR?_WRITELKBP?FLASH
            CODE    1EECH     0012H     UNIT         ?PR?DISABLERST?FLASH
            CODE    1EFEH     000DH     UNIT         ?PR?_SENDTEMP?MAIN
            CODE    1F0BH     000AH     UNIT         ?PR?DELTATIME?MAIN
            CODE    1F15H     0009H     UNIT         ?PR?FLASHLED?MAIN
            CODE    1F1EH     0009H     UNIT         ?PR?WDTINIT?TEST
            CODE    1F27H     0004H     UNIT         ?PR?REDOIT?FLASH
            CODE    1F2BH     0004H     UNIT         ?PR?CLEARWDT?TEST



OVERLAY MAP OF MODULE:   AD (MAIN)


SEGMENT                                      XDATA_GROUP
  +--> CALLED SEGMENT                      START    LENGTH
----------------------------------------------------------
?C_C51STARTUP                              -----    -----
  +--> ?PR?MAIN?MAIN
BL51 BANKED LINKER/LOCATER V6.22.2.0                                                  08/12/2021  12:55:31  PAGE 3


  +--> ?C_INITSEG

?PR?MAIN?MAIN                              -----    -----
  +--> ?PR?SETPORTS?MAIN
  +--> ?PR?WDTINIT?TEST
  +--> ?PR?READONTIMES?FLASH
  +--> ?PR?READMOTORPOSITION?FLASH
  +--> ?PR?_SENDPIN?MAIN
  +--> ?PR?PCBTEST?TEST
  +--> ?PR?TIMERPOLL?TIMER
  +--> ?PR?BALANCESETUP?MAIN
  +--> ?PR?DELTATIME?MAIN
  +--> ?PR?_TIMERSTART?TIMER
  +--> ?PR?_MOTOR?MOTOR
  +--> ?PR?READAD?TEMPERATURE
  +--> ?PR?READLKBP?FLASH
  +--> ?PR?_MOVETOPOSITION?MOTOR
  +--> ?CO?MAIN
  +--> ?PR?_SENDSTRING?MAIN
  +--> ?PR?_SENDRAWPIN?MAIN
  +--> ?PR?DOBALANCE?MAIN

?PR?WDTINIT?TEST                           -----    -----
  +--> ?PR?CLEARWDT?TEST

?PR?_SENDPIN?MAIN                          -----    -----
  +--> ?PR?_SENDRAWPIN?MAIN
  +--> ?PR?_SENDBYTE?MAIN

?PR?_SENDRAWPIN?MAIN                       0052H    0005H
  +--> ?PR?_SENDBYTE?MAIN

?PR?PCBTEST?TEST                           -----    -----
  +--> ?PR?FLASHLED?MAIN
  +--> ?PR?_TIMERSTART?TIMER
  +--> ?PR?REALTIME?MAIN

?PR?_TIMERSTART?TIMER                      005BH    0007H

?PR?REALTIME?MAIN                          0050H    0002H
  +--> ?PR?PCBTEST1?TEST
  +--> ?PR?_MOTOR?MOTOR
  +--> ?PR?_TIMERRESET?TIMER
  +--> ?CO?MAIN
  +--> ?PR?ERASEDATA?FLASH
  +--> ?PR?_WRITECAL?FLASH
  +--> ?PR?WRITEFLASH?FLASH
  +--> ?PR?_SENDSTRING?MAIN
  +--> ?PR?REBOOT?FLASH
  +--> ?PR?POWERISOFF?MAIN

?PR?PCBTEST1?TEST                          -----    -----
  +--> ?PR?_TIMERRESET?TIMER
  +--> ?PR?READAD?TEMPERATURE
  +--> ?PR?FLASHLED?MAIN
  +--> ?PR?_TIMERSTART?TIMER
  +--> ?PR?TIMERPOLL?TIMER
BL51 BANKED LINKER/LOCATER V6.22.2.0                                                  08/12/2021  12:55:31  PAGE 4



?PR?READAD?TEMPERATURE                     0052H    0009H
  +--> ?CO?TEMPERATURE
  +--> ?PR?FLASHLED?MAIN
  +--> ?PR?_TIMERSTART?TIMER
  +--> ?PR?_TIMERRESET?TIMER

?PR?TIMERPOLL?TIMER                        -----    -----
  +--> ?PR?CLEARWDT?TEST

?PR?_MOTOR?MOTOR                           0054H    0003H
  +--> ?PR?_TIMERRESET?TIMER
  +--> ?PR?ENDSTOPDRIVER?MAIN
  +--> ?PR?_TIMERSTART?TIMER

?PR?ENDSTOPDRIVER?MAIN                     -----    -----
  +--> ?PR?_TIMERRESET?TIMER

?PR?_WRITECAL?FLASH                        0052H    0002H

?PR?_SENDSTRING?MAIN                       0052H    0003H
  +--> ?CO?MAIN
  +--> ?PR?_SENDBYTE?MAIN

?PR?REBOOT?FLASH                           -----    -----
  +--> ?PR?TIMERPOLL?TIMER
  +--> ?PR?REDOIT?FLASH

?PR?POWERISOFF?MAIN                        -----    -----
  +--> ?PR?_MOTOR?MOTOR
  +--> ?CO?MAIN
  +--> ?PR?_SENDSTRING?MAIN
  +--> ?PR?READCAL?FLASH
  +--> ?PR?FLASHLED?MAIN
  +--> ?PR?_TIMERSTART?TIMER
  +--> ?PR?ENDSTOPDRIVER?MAIN
  +--> ?PR?TIMERPOLL?TIMER
  +--> ?PR?ERASEDATA?FLASH
  +--> ?PR?_WRITEMAXCOUNT?FLASH
  +--> ?PR?_WRITELKBP?FLASH
  +--> ?PR?_WRITEVOP?FLASH
  +--> ?PR?_WRITECAL?FLASH
  +--> ?PR?_WRITEONTIMES?FLASH
  +--> ?PR?_WRITEMOTORPOSITION?FLASH
  +--> ?PR?WRITEFLASH?FLASH
  +--> ?PR?_MOVETOPOSITION?MOTOR
  +--> ?PR?_LEDFLASH?MAIN
  +--> ?PR?_SENDPIN?MAIN
  +--> ?PR?REBOOT?FLASH

?PR?_WRITEMAXCOUNT?FLASH                   0052H    0002H

?PR?_WRITELKBP?FLASH                       0052H    0002H

?PR?_WRITEVOP?FLASH                        0052H    0002H

?PR?_WRITEONTIMES?FLASH                    0052H    0002H
BL51 BANKED LINKER/LOCATER V6.22.2.0                                                  08/12/2021  12:55:31  PAGE 5



?PR?_WRITEMOTORPOSITION?FLASH              0052H    0002H

?PR?_MOVETOPOSITION?MOTOR                  0052H    0002H
  +--> ?PR?_MOTOR?MOTOR
  +--> ?PR?MOTORMOVE?MOTOR
  +--> ?PR?TIMERPOLL?TIMER

?PR?MOTORMOVE?MOTOR                        -----    -----
  +--> ?PR?FLASHLED?MAIN
  +--> ?PR?_TIMERSTART?TIMER
  +--> ?PR?_MOTOR?MOTOR

?PR?_LEDFLASH?MAIN                         0052H    0005H
  +--> ?PR?TIMERPOLL?TIMER

?PR?BALANCESETUP?MAIN                      -----    -----
  +--> ?PR?DISABLERST?FLASH
  +--> ?PR?REALTIME?MAIN
  +--> ?PR?_TIMERSTART?TIMER
  +--> ?PR?TIMERPOLL?TIMER
  +--> ?PR?FLASHLED?MAIN
  +--> ?PR?_MOVETOPOSITION?MOTOR
  +--> ?PR?_LEDFLASH?MAIN
  +--> ?CO?MAIN
  +--> ?PR?_SENDSTRING?MAIN
  +--> ?PR?_SENDPIN?MAIN
  +--> ?PR?READAD?TEMPERATURE
  +--> ?PR?_SENDTEMP?MAIN
  +--> ?PR?READONTIMES?FLASH
  +--> ?PR?READCAL?FLASH
  +--> ?PR?READMAXCOUNT?FLASH
  +--> ?PR?READVOP?FLASH
  +--> ?PR?READLKBP?FLASH
  +--> ?PR?READMOTORPOSITION?FLASH
  +--> ?PR?ERASEDATA?FLASH
  +--> ?PR?_WRITEMAXCOUNT?FLASH
  +--> ?PR?_WRITEVOP?FLASH
  +--> ?PR?_WRITECAL?FLASH
  +--> ?PR?_WRITEONTIMES?FLASH
  +--> ?PR?_WRITELKBP?FLASH
  +--> ?PR?WRITEFLASH?FLASH
  +--> ?PR?_SENDRAWPIN?MAIN

?PR?_SENDTEMP?MAIN                         -----    -----
  +--> ?PR?_SENDRAWTEMP?MAIN
  +--> ?PR?_SENDBYTE?MAIN

?PR?_SENDRAWTEMP?MAIN                      0052H    0005H
  +--> ?PR?_SENDBYTE?MAIN

?PR?DELTATIME?MAIN                         -----    -----
  +--> ?PR?READAD?TEMPERATURE

?PR?DOBALANCE?MAIN                         0050H    0002H
  +--> ?PR?READAD?TEMPERATURE
  +--> ?PR?READMOTORCURRENTAD?TEMPERATURE
BL51 BANKED LINKER/LOCATER V6.22.2.0                                                  08/12/2021  12:55:31  PAGE 6


  +--> ?PR?TIMERPOLL?TIMER
  +--> ?PR?_MOVETOPOSITION?MOTOR
  +--> ?PR?_SENDBYTE?MAIN
  +--> ?PR?_SENDRAWTEMP?MAIN
  +--> ?PR?_SENDRAWPIN?MAIN
  +--> ?PR?_SENDSTRING?MAIN

?PR?READMOTORCURRENTAD?TEMPERATURE         0052H    0007H



SYMBOL TABLE OF MODULE:  AD (MAIN)

  VALUE           TYPE          NAME
  ----------------------------------

  -------         MODULE        MAIN
  C:0000H         SYMBOL        _ICE_DUMMY_
  C:1F0BH         PUBLIC        DeltaTime
  X:0001H         PUBLIC        second
  D:0080H         PUBLIC        P0
  D:0088H         PUBLIC        P1
  D:0090H         PUBLIC        P2
  X:0002H         PUBLIC        testing
  D:0098H         PUBLIC        P3
  D:00E2H         PUBLIC        UARTCR1
  D:00E3H         PUBLIC        UARTCR2
  C:10D1H         PUBLIC        _LedFlash
  C:1F15H         PUBLIC        FlashLed
  X:0003H         PUBLIC        minutes
  X:0004H         PUBLIC        zeroed
  D:00A8H         PUBLIC        IE
  X:0005H         PUBLIC        startCalib
  D:0091H         PUBLIC        P0OD
  D:0092H         PUBLIC        P1OD
  X:0007H         PUBLIC        minute
  D:0093H         PUBLIC        P2OD
  D:0094H         PUBLIC        P3OD
  C:14C1H         PUBLIC        RealTime
  X:0008H         PUBLIC        close
  D:00A1H         PUBLIC        P0IO
  X:0009H         PUBLIC        olddt
  D:00B1H         PUBLIC        P1IO
  D:00B9H         PUBLIC        P2IO
  X:000BH         PUBLIC        atmin
  D:00C1H         PUBLIC        P3IO
  X:000CH         PUBLIC        Fvop
  X:000EH         PUBLIC        atmax
  C:00B6H         PUBLIC        dobalance
  X:000FH         PUBLIC        TimerList
  X:0033H         PUBLIC        Balcycle
  X:0034H         PUBLIC        TempError
  D:00ACH         PUBLIC        P0PU
  C:12F7H         PUBLIC        main
  X:0035H         PUBLIC        mtrcountfree
  D:00ADH         PUBLIC        P1PU
  D:00AEH         PUBLIC        P2PU
BL51 BANKED LINKER/LOCATER V6.22.2.0                                                  08/12/2021  12:55:31  PAGE 7


  D:00AFH         PUBLIC        P3PU
  X:0037H         PUBLIC        LKBP
  D:00A6H         PUBLIC        EIPOL1
  C:1B5DH         PUBLIC        _sendrawtemp
  B:0080H.2       PUBLIC        P02
  X:0039H         PUBLIC        subconstate
  B:0088H.2       PUBLIC        P12
  X:003AH         PUBLIC        open
  D:00D5H         PUBLIC        P1FSRH
  B:0090H.4       PUBLIC        P24
  B:0090H.5       PUBLIC        P25
  B:0090H.6       PUBLIC        P26
  X:003BH         PUBLIC        retry
  X:003CH         PUBLIC        move
  X:003DH         PUBLIC        currentmotorposition
  B:0098H.6       PUBLIC        P36
  X:003FH         PUBLIC        flow
  D:00D4H         PUBLIC        P1FSRL
  B:0098H.7       PUBLIC        P37
  X:0040H         PUBLIC        Fmaxcount
  X:0042H         PUBLIC        rturn
  C:0869H         PUBLIC        BalanceSetup
  X:0043H         PUBLIC        motortarget
  X:0045H         PUBLIC        hour
  D:00ABH         PUBLIC        IE3
  C:1AFAH         PUBLIC        _sendrawpin
  D:00E6H         PUBLIC        UARTBD
  C:1C1DH         PUBLIC        _sendstring
  X:0046H         PUBLIC        atmincount
  C:1665H         PUBLIC        SetPorts
  X:0047H         PUBLIC        Fontimes
  C:0CE6H         PUBLIC        powerisoff
  C:186AH         PUBLIC        EndstopDriver
  C:0F8AH         PUBLIC        timer_isr
  D:00E7H         PUBLIC        UARTDR
  C:1DEAH         PUBLIC        _sendbyte
  C:1721H         PUBLIC        motor_isr
  C:1EFEH         PUBLIC        _sendtemp
  D:00E5H         PUBLIC        UARTST
  X:0049H         PUBLIC        constate
  X:004AH         PUBLIC        oldmtrcountfree
  D:00D3H         PUBLIC        P0FSR
  D:00D6H         PUBLIC        P2FSR
  D:00D7H         PUBLIC        P3FSR
  X:004CH         PUBLIC        maxcount
  C:1E2AH         PUBLIC        _sendpin
  D:008BH         PUBLIC        BITCR
  X:004EH         PUBLIC        Fcal
  -------         PROC          MOTOR_ISR
  C:1721H         LINE#         69
  C:1734H         LINE#         71
  C:173CH         LINE#         72
  C:173CH         LINE#         74
  C:1743H         LINE#         75
  C:1745H         LINE#         78
  C:1745H         LINE#         79
  C:174BH         LINE#         80
BL51 BANKED LINKER/LOCATER V6.22.2.0                                                  08/12/2021  12:55:31  PAGE 8


  C:174BH         LINE#         81
  C:1759H         LINE#         82
  C:1781H         LINE#         83
  C:1781H         LINE#         84
  C:1783H         LINE#         85
  C:1785H         LINE#         87
  C:1785H         LINE#         88
  C:1785H         LINE#         89
  C:178BH         LINE#         90
  C:178BH         LINE#         91
  C:1799H         LINE#         104
  C:17C3H         LINE#         105
  C:17C3H         LINE#         106
  C:17C5H         LINE#         107
  C:17C7H         LINE#         109
  C:17C7H         LINE#         111
  C:17C7H         LINE#         112
  -------         ENDPROC       MOTOR_ISR
  -------         PROC          TIMER_ISR
  -------         DO            
  X:0000H         SYMBOL        idx
  -------         ENDDO         
  C:0F8AH         LINE#         115
  C:0FA7H         LINE#         119
  C:0FBDH         LINE#         120
  C:0FBDH         LINE#         121
  C:0FD9H         LINE#         122
  C:0FD9H         LINE#         123
  C:1001H         LINE#         124
  C:1001H         LINE#         125
  C:101AH         LINE#         126
  C:1049H         LINE#         127
  C:1049H         LINE#         128
  C:105EH         LINE#         129
  C:1083H         LINE#         130
  C:10ADH         LINE#         131
  C:10ADH         LINE#         132
  C:10ADH         LINE#         133
  C:10ADH         LINE#         134
  C:10B6H         LINE#         135
  -------         ENDPROC       TIMER_ISR
  C:1B58H         SYMBOL        L?0230
  -------         PROC          L?0229
  -------         ENDPROC       L?0229
  C:1B58H         SYMBOL        L?0230
  -------         PROC          _SENDRAWTEMP
  D:0002H         SYMBOL        wdata
  -------         DO            
  X:0052H         SYMBOL        ln1
  X:0053H         SYMBOL        hn1
  X:0054H         SYMBOL        ln2
  D:0007H         SYMBOL        hn2
  X:0055H         SYMBOL        x
  -------         ENDDO         
  C:1B5DH         LINE#         281
  C:1B61H         LINE#         282
  C:1B61H         LINE#         285
BL51 BANKED LINKER/LOCATER V6.22.2.0                                                  08/12/2021  12:55:31  PAGE 9


  C:1B70H         LINE#         286
  C:1B80H         LINE#         287
  C:1B95H         LINE#         288
  C:1B95H         LINE#         289
  C:1B95H         LINE#         290
  C:1B95H         LINE#         291
  C:1B98H         LINE#         292
  C:1BA2H         LINE#         293
  C:1BA7H         LINE#         294
  C:1BB1H         LINE#         295
  -------         ENDPROC       _SENDRAWTEMP
  -------         PROC          _SENDTEMP
  D:0006H         SYMBOL        wdata
  C:1EFEH         LINE#         298
  C:1EFEH         LINE#         299
  C:1EFEH         LINE#         300
  C:1F01H         LINE#         301
  C:1F06H         LINE#         302
  -------         ENDPROC       _SENDTEMP
  C:1E25H         SYMBOL        L?0228
  -------         PROC          L?0227
  -------         ENDPROC       L?0227
  C:1E25H         SYMBOL        L?0228
  -------         PROC          _SENDPIN
  D:0006H         SYMBOL        wdata
  C:1E2AH         LINE#         305
  C:1E2AH         LINE#         306
  C:1E2AH         LINE#         307
  C:1E2DH         LINE#         308
  C:1E32H         LINE#         309
  C:1E37H         LINE#         310
  -------         ENDPROC       _SENDPIN
  C:1AF5H         SYMBOL        L?0232
  -------         PROC          L?0231
  -------         ENDPROC       L?0231
  C:1AF5H         SYMBOL        L?0232
  -------         PROC          _SENDRAWPIN
  D:0002H         SYMBOL        wdata
  -------         DO            
  X:0052H         SYMBOL        ln1
  X:0053H         SYMBOL        hn1
  X:0054H         SYMBOL        ln2
  D:0007H         SYMBOL        hn2
  X:0055H         SYMBOL        x
  -------         ENDDO         
  C:1AFAH         LINE#         313
  C:1AFEH         LINE#         314
  C:1AFEH         LINE#         317
  C:1B0DH         LINE#         318
  C:1B1DH         LINE#         319
  C:1B32H         LINE#         320
  C:1B32H         LINE#         321
  C:1B32H         LINE#         322
  C:1B32H         LINE#         323
  C:1B35H         LINE#         324
  C:1B3AH         LINE#         325
  C:1B44H         LINE#         326
BL51 BANKED LINKER/LOCATER V6.22.2.0                                                  08/12/2021  12:55:31  PAGE 10


  C:1B4EH         LINE#         327
  -------         ENDPROC       _SENDRAWPIN
  -------         PROC          L?0226
  -------         ENDPROC       L?0226
  -------         PROC          _SENDBYTE
  D:0007H         SYMBOL        sdata
  C:1DEAH         LINE#         330
  C:1DEAH         LINE#         331
  C:1DEAH         LINE#         333
  C:1DEAH         LINE#         334
  C:1DF0H         LINE#         335
  C:1DF2H         LINE#         336
  -------         ENDPROC       _SENDBYTE
  -------         PROC          L?0233
  -------         ENDPROC       L?0233
  -------         PROC          _SENDSTRING
  X:0052H         SYMBOL        message
  -------         DO            
  D:0006H         SYMBOL        count
  -------         ENDDO         
  C:1C1DH         LINE#         338
  C:1C28H         LINE#         339
  C:1C28H         LINE#         340
  C:1C2AH         LINE#         342
  C:1C2AH         LINE#         343
  C:1C41H         LINE#         344
  C:1C42H         LINE#         345
  C:1C57H         LINE#         346
  -------         ENDPROC       _SENDSTRING
  -------         PROC          DELTATIME
  C:1F0BH         LINE#         348
  C:1F0BH         LINE#         349
  C:1F0BH         LINE#         350
  C:1F0EH         LINE#         363
  C:1F14H         LINE#         364
  -------         ENDPROC       DELTATIME
  -------         PROC          REALTIME
  -------         DO            
  X:0050H         SYMBOL        i
  -------         ENDDO         
  C:14C1H         LINE#         371
  C:14C1H         LINE#         372
  C:14C1H         LINE#         374
  C:14C7H         LINE#         375
  C:14CDH         LINE#         376
  C:14CDH         LINE#         377
  C:14D0H         LINE#         378
  C:14D0H         LINE#         380
  C:14D6H         LINE#         382
  C:14D6H         LINE#         384
  C:14F7H         LINE#         386
  C:14FAH         LINE#         388
  C:14FAH         LINE#         389
  C:14FFH         LINE#         390
  C:1504H         LINE#         391
  C:1509H         LINE#         392
  C:1516H         LINE#         393
BL51 BANKED LINKER/LOCATER V6.22.2.0                                                  08/12/2021  12:55:31  PAGE 11


  C:151BH         LINE#         394
  C:1520H         LINE#         395
  C:1539H         LINE#         396
  C:1539H         LINE#         399
  C:153BH         LINE#         400
  C:1541H         LINE#         401
  C:1541H         LINE#         402
  C:1543H         LINE#         403
  C:1556H         LINE#         404
  C:1556H         LINE#         405
  C:1559H         LINE#         406
  C:155FH         LINE#         407
  C:1562H         LINE#         410
  C:1564H         LINE#         411
  C:156DH         LINE#         412
  C:1570H         LINE#         413
  C:1570H         LINE#         414
  C:1573H         LINE#         415
  C:1573H         LINE#         416
  C:1573H         LINE#         417
  C:157BH         LINE#         418
  C:157BH         LINE#         419
  C:157CH         LINE#         420
  C:1582H         LINE#         421
  C:158BH         LINE#         422
  C:1591H         LINE#         423
  C:1599H         LINE#         424
  C:1599H         LINE#         425
  C:159AH         LINE#         426
  C:15A0H         LINE#         427
  C:15A0H         LINE#         428
  C:15A0H         LINE#         429
  -------         ENDPROC       REALTIME
  -------         PROC          FLASHLED
  C:1F15H         LINE#         432
  C:1F15H         LINE#         433
  C:1F15H         LINE#         435
  C:1F1BH         LINE#         436
  C:1F1DH         LINE#         439
  -------         ENDPROC       FLASHLED
  -------         PROC          ENDSTOPDRIVER
  -------         DO            
  D:0006H         SYMBOL        i
  -------         ENDDO         
  C:186AH         LINE#         442
  C:186AH         LINE#         443
  C:186AH         LINE#         446
  C:187AH         LINE#         447
  C:187AH         LINE#         467
  C:188EH         LINE#         468
  C:188EH         LINE#         469
  C:1890H         LINE#         470
  C:1892H         LINE#         471
  C:1897H         LINE#         472
  C:18A4H         LINE#         473
  C:18A9H         LINE#         474
  C:18B7H         LINE#         477
BL51 BANKED LINKER/LOCATER V6.22.2.0                                                  08/12/2021  12:55:31  PAGE 12


  C:18B9H         LINE#         478
  C:18BEH         LINE#         479
  C:18C2H         LINE#         482
  C:18C2H         LINE#         483
  C:18C2H         LINE#         484
  C:18C4H         LINE#         486
  C:18C4H         LINE#         487
  C:18CEH         LINE#         488
  C:18CEH         LINE#         490
  C:18D0H         LINE#         492
  C:18D0H         LINE#         494
  C:18D5H         LINE#         495
  C:18E2H         LINE#         496
  C:18E7H         LINE#         499
  C:18E9H         LINE#         500
  C:18F8H         LINE#         501
  C:18F8H         LINE#         502
  -------         ENDPROC       ENDSTOPDRIVER
  -------         PROC          MAIN
  C:12F7H         LINE#         508
  C:12F7H         LINE#         509
  C:12F7H         LINE#         510
  C:12FAH         LINE#         511
  C:12FFH         LINE#         512
  C:1303H         LINE#         513
  C:1307H         LINE#         514
  C:130BH         LINE#         515
  C:130EH         LINE#         517
  C:1315H         LINE#         518
  C:1315H         LINE#         520
  C:131BH         LINE#         521
  C:1321H         LINE#         522
  C:1321H         LINE#         524
  C:1324H         LINE#         526
  C:1324H         LINE#         527
  C:132AH         LINE#         528
  C:132DH         LINE#         529
  C:132DH         LINE#         531
  C:132DH         LINE#         532
  C:1330H         LINE#         533
  C:1338H         LINE#         534
  C:1343H         LINE#         535
  C:1346H         LINE#         536
  C:135EH         LINE#         537
  C:1363H         LINE#         538
  C:1366H         LINE#         539
  C:1375H         LINE#         540
  C:137BH         LINE#         541
  C:137FH         LINE#         543
  C:138CH         LINE#         544
  C:13A0H         LINE#         545
  C:13B6H         LINE#         546
  C:13C6H         LINE#         547
  C:13C9H         LINE#         548
  C:13D2H         LINE#         549
  C:13D5H         LINE#         550
  C:13D8H         LINE#         552
BL51 BANKED LINKER/LOCATER V6.22.2.0                                                  08/12/2021  12:55:31  PAGE 13


  C:13D8H         LINE#         553
  C:13DBH         LINE#         555
  C:13DEH         LINE#         556
  -------         ENDPROC       MAIN
  -------         PROC          DOBALANCE
  -------         DO            
  X:0050H         SYMBOL        controlDT
  -------         ENDDO         
  C:00B6H         LINE#         559
  C:00B6H         LINE#         560
  C:00B6H         LINE#         561
  C:00C0H         LINE#         562
  C:00C3H         LINE#         563
  C:00C6H         LINE#         564
  C:00C9H         LINE#         565
  C:00D2H         LINE#         566
  C:00D2H         LINE#         567
  C:00D8H         LINE#         568
  C:00E5H         LINE#         569
  C:00E5H         LINE#         570
  C:00E7H         LINE#         571
  C:00F2H         LINE#         572
  C:00F2H         LINE#         577
  C:00F2H         LINE#         578
  C:00F2H         LINE#         579
  C:00F5H         LINE#         583
  C:00F8H         LINE#         584
  C:010AH         LINE#         585
  C:010AH         LINE#         586
  C:013AH         LINE#         587
  C:0144H         LINE#         588
  C:0144H         LINE#         618
  C:0160H         LINE#         619
  C:0160H         LINE#         620
  C:0171H         LINE#         621
  C:0177H         LINE#         622
  C:017CH         LINE#         623
  C:017FH         LINE#         624
  C:018DH         LINE#         625
  C:018DH         LINE#         626
  C:0199H         LINE#         627
  C:0199H         LINE#         628
  C:019EH         LINE#         629
  C:01A2H         LINE#         630
  C:01A8H         LINE#         631
  C:01ABH         LINE#         633
  C:01ABH         LINE#         634
  C:01C9H         LINE#         635
  C:01C9H         LINE#         636
  C:01DEH         LINE#         637
  C:01E9H         LINE#         638
  C:01E9H         LINE#         639
  C:01E9H         LINE#         640
  C:01E9H         LINE#         641
  C:01E9H         LINE#         642
  C:01E9H         LINE#         643
  C:01E9H         LINE#         644
BL51 BANKED LINKER/LOCATER V6.22.2.0                                                  08/12/2021  12:55:31  PAGE 14


  C:01EBH         LINE#         645
  C:0207H         LINE#         646
  C:0207H         LINE#         647
  C:0213H         LINE#         648
  C:0213H         LINE#         649
  C:0218H         LINE#         650
  C:021CH         LINE#         651
  C:0222H         LINE#         652
  C:0225H         LINE#         654
  C:0225H         LINE#         655
  C:023DH         LINE#         656
  C:023DH         LINE#         657
  C:0252H         LINE#         658
  C:025DH         LINE#         659
  C:025DH         LINE#         660
  C:026FH         LINE#         661
  C:0272H         LINE#         662
  C:0272H         LINE#         663
  C:0272H         LINE#         664
  C:0272H         LINE#         665
  C:0275H         LINE#         666
  C:028BH         LINE#         667
  C:028BH         LINE#         668
  C:029AH         LINE#         669
  C:029AH         LINE#         670
  C:029FH         LINE#         671
  C:02A3H         LINE#         672
  C:02A9H         LINE#         673
  C:02A9H         LINE#         674
  C:02ABH         LINE#         675
  C:02C1H         LINE#         676
  C:02C1H         LINE#         677
  C:02CDH         LINE#         678
  C:02CDH         LINE#         679
  C:02D2H         LINE#         680
  C:02D6H         LINE#         681
  C:02E3H         LINE#         682
  C:02E6H         LINE#         684
  C:02E6H         LINE#         685
  C:0304H         LINE#         686
  C:0304H         LINE#         687
  C:0319H         LINE#         688
  C:032AH         LINE#         689
  C:032AH         LINE#         690
  C:0332H         LINE#         691
  C:0335H         LINE#         692
  C:0335H         LINE#         693
  C:0335H         LINE#         694
  C:0335H         LINE#         695
  C:0338H         LINE#         696
  C:034EH         LINE#         697
  C:034EH         LINE#         698
  C:035AH         LINE#         699
  C:035AH         LINE#         700
  C:035FH         LINE#         701
  C:0363H         LINE#         702
  C:0377H         LINE#         703
BL51 BANKED LINKER/LOCATER V6.22.2.0                                                  08/12/2021  12:55:31  PAGE 15


  C:037AH         LINE#         705
  C:037AH         LINE#         706
  C:038FH         LINE#         707
  C:038FH         LINE#         708
  C:03A4H         LINE#         709
  C:03B2H         LINE#         710
  C:03B2H         LINE#         711
  C:03BAH         LINE#         712
  C:03C0H         LINE#         713
  C:03C0H         LINE#         714
  C:03C0H         LINE#         715
  C:03C0H         LINE#         716
  C:03C2H         LINE#         718
  C:03C2H         LINE#         731
  C:03C8H         LINE#         732
  C:03C8H         LINE#         733
  C:03CCH         LINE#         734
  C:03D1H         LINE#         735
  C:03D6H         LINE#         736
  C:03D8H         LINE#         737
  C:03E3H         LINE#         738
  C:03E3H         LINE#         739
  C:03E4H         LINE#         740
  C:03ECH         LINE#         741
  C:03EEH         LINE#         743
  C:03EEH         LINE#         744
  C:03F1H         LINE#         745
  C:03F6H         LINE#         746
  C:0405H         LINE#         755
  C:0405H         LINE#         756
  C:0405H         LINE#         759
  C:041FH         LINE#         760
  C:0435H         LINE#         761
  C:0440H         LINE#         762
  C:044FH         LINE#         763
  C:0454H         LINE#         764
  C:0457H         LINE#         765
  C:045DH         LINE#         766
  C:0462H         LINE#         767
  C:0468H         LINE#         768
  C:046DH         LINE#         769
  C:0485H         LINE#         770
  C:048AH         LINE#         771
  C:0490H         LINE#         772
  C:049DH         LINE#         773
  C:04A2H         LINE#         774
  C:04A8H         LINE#         776
  C:04ADH         LINE#         777
  C:04B3H         LINE#         780
  C:04B6H         LINE#         789
  C:04B6H         LINE#         790
  C:04B6H         LINE#         791
  C:04B6H         LINE#         801
  C:04B6H         LINE#         802
  C:04BBH         LINE#         803
  C:04BBH         LINE#         804
  -------         ENDPROC       DOBALANCE
BL51 BANKED LINKER/LOCATER V6.22.2.0                                                  08/12/2021  12:55:31  PAGE 16


  -------         PROC          POWERISOFF
  C:0CE6H         LINE#         805
  C:0CE6H         LINE#         806
  C:0CE6H         LINE#         808
  C:0CEBH         LINE#         809
  C:0CF4H         LINE#         810
  C:0CFDH         LINE#         811
  C:0CFDH         LINE#         812
  C:0D08H         LINE#         813
  C:0D20H         LINE#         814
  C:0D20H         LINE#         822
  C:0D34H         LINE#         823
  C:0D4DH         LINE#         824
  C:0D52H         LINE#         825
  C:0D57H         LINE#         828
  C:0D59H         LINE#         830
  C:0D5BH         LINE#         831
  C:0D5DH         LINE#         832
  C:0D75H         LINE#         833
  C:0D75H         LINE#         834
  C:0D78H         LINE#         835
  C:0D84H         LINE#         836
  C:0D87H         LINE#         837
  C:0D92H         LINE#         838
  C:0D9DH         LINE#         839
  C:0DA8H         LINE#         840
  C:0DB3H         LINE#         841
  C:0DBEH         LINE#         842
  C:0DD7H         LINE#         843
  C:0DE2H         LINE#         844
  C:0DE5H         LINE#         847
  C:0DE7H         LINE#         848
  C:0DE9H         LINE#         850
  C:0DE9H         LINE#         851
  C:0DFCH         LINE#         852
  C:0DFCH         LINE#         854
  C:0DFFH         LINE#         855
  C:0E06H         LINE#         858
  C:0E08H         LINE#         859
  C:0E0AH         LINE#         870
  C:0E0AH         LINE#         871
  C:0E11H         LINE#         874
  C:0E13H         LINE#         875
  C:0E13H         LINE#         876
  C:0E1CH         LINE#         877
  C:0E2CH         LINE#         878
  C:0E2CH         LINE#         879
  C:0E2FH         LINE#         880
  C:0E31H         LINE#         882
  C:0E31H         LINE#         883
  C:0E3AH         LINE#         884
  C:0E3AH         LINE#         885
  -------         ENDPROC       POWERISOFF
  -------         PROC          SETPORTS
  -------         DO            
  D:0007H         SYMBOL        idx
  -------         ENDDO         
BL51 BANKED LINKER/LOCATER V6.22.2.0                                                  08/12/2021  12:55:31  PAGE 17


  C:1665H         LINE#         890
  C:1665H         LINE#         891
  C:1665H         LINE#         894
  C:1671H         LINE#         895
  C:1671H         LINE#         896
  C:1685H         LINE#         897
  C:1697H         LINE#         898
  C:16A9H         LINE#         899
  C:16B9H         LINE#         900
  C:16C9H         LINE#         901
  C:16CCH         LINE#         904
  C:16CFH         LINE#         905
  C:16D1H         LINE#         906
  C:16D4H         LINE#         907
  C:16D6H         LINE#         908
  C:16D9H         LINE#         910
  C:16DBH         LINE#         912
  C:16DDH         LINE#         913
  C:16DFH         LINE#         914
  C:16E1H         LINE#         915
  C:16E3H         LINE#         916
  C:16E5H         LINE#         917
  C:16E7H         LINE#         918
  C:16E9H         LINE#         920
  C:16ECH         LINE#         921
  C:16EFH         LINE#         922
  C:16F1H         LINE#         923
  C:16F4H         LINE#         924
  C:16F6H         LINE#         925
  C:16F9H         LINE#         927
  C:16FBH         LINE#         928
  C:16FEH         LINE#         929
  C:1701H         LINE#         930
  C:1703H         LINE#         931
  C:1706H         LINE#         932
  C:1709H         LINE#         933
  C:170CH         LINE#         934
  C:170FH         LINE#         935
  C:1711H         LINE#         938
  C:1714H         LINE#         939
  C:1717H         LINE#         940
  C:171AH         LINE#         941
  C:171DH         LINE#         942
  C:1720H         LINE#         983
  -------         ENDPROC       SETPORTS
  -------         PROC          BALANCESETUP
  C:0869H         LINE#         985
  C:0869H         LINE#         986
  C:0869H         LINE#         987
  C:086EH         LINE#         988
  C:0871H         LINE#         990
  C:088AH         LINE#         991
  C:088FH         LINE#         994
  C:0891H         LINE#         996
  C:0891H         LINE#         997
  C:0894H         LINE#         998
  C:089CH         LINE#         999
BL51 BANKED LINKER/LOCATER V6.22.2.0                                                  08/12/2021  12:55:31  PAGE 18


  C:08B3H         LINE#         1001
  C:08B3H         LINE#         1002
  C:08B6H         LINE#         1003
  C:08BEH         LINE#         1009
  C:08C5H         LINE#         1013
  C:08CFH         LINE#         1014
  C:08D9H         LINE#         1015
  C:08E3H         LINE#         1016
  C:08E9H         LINE#         1017
  C:08F2H         LINE#         1018
  C:08F9H         LINE#         1019
  C:0900H         LINE#         1020
  C:0905H         LINE#         1021
  C:090CH         LINE#         1022
  C:0915H         LINE#         1023
  C:0920H         LINE#         1024
  C:0929H         LINE#         1033
  C:092CH         LINE#         1034
  C:092FH         LINE#         1035
  C:0938H         LINE#         1036
  C:0943H         LINE#         1037
  C:094CH         LINE#         1038
  C:0957H         LINE#         1039
  C:0962H         LINE#         1040
  C:096DH         LINE#         1045
  C:0979H         LINE#         1046
  C:0979H         LINE#         1047
  C:0982H         LINE#         1048
  C:098DH         LINE#         1049
  C:0995H         LINE#         1050
  C:099BH         LINE#         1051
  C:099EH         LINE#         1052
  C:09A9H         LINE#         1053
  C:09B4H         LINE#         1054
  C:09BFH         LINE#         1055
  C:09CAH         LINE#         1056
  C:09D2H         LINE#         1057
  C:09D8H         LINE#         1058
  C:09DBH         LINE#         1059
  C:09E6H         LINE#         1060
  C:09F1H         LINE#         1061
  C:09FCH         LINE#         1062
  C:0A07H         LINE#         1063
  C:0A12H         LINE#         1064
  C:0A15H         LINE#         1065
  C:0A20H         LINE#         1066
  C:0A2BH         LINE#         1067
  C:0A36H         LINE#         1068
  C:0A41H         LINE#         1075
  C:0A4AH         LINE#         1076
  C:0A4DH         LINE#         1077
  C:0A5EH         LINE#         1079
  C:0A5EH         LINE#         1080
  C:0A61H         LINE#         1081
  C:0A6DH         LINE#         1082
  C:0A6DH         LINE#         1083
  C:0A76H         LINE#         1084
BL51 BANKED LINKER/LOCATER V6.22.2.0                                                  08/12/2021  12:55:31  PAGE 19


  C:0A79H         LINE#         1085
  C:0A79H         LINE#         1086
  C:0A7CH         LINE#         1089
  C:0A7CH         LINE#         1090
  C:0A7FH         LINE#         1092
  C:0A7FH         LINE#         1093
  C:0A88H         LINE#         1095
  C:0A8FH         LINE#         1096
  C:0A9EH         LINE#         1097
  C:0A9EH         LINE#         1098
  C:0AA5H         LINE#         1099
  C:0AABH         LINE#         1100
  C:0AABH         LINE#         1101
  C:0ABAH         LINE#         1102
  C:0ABAH         LINE#         1103
  C:0AC1H         LINE#         1104
  C:0AC7H         LINE#         1105
  C:0AC7H         LINE#         1106
  C:0AD0H         LINE#         1107
  C:0AD3H         LINE#         1108
  C:0ADBH         LINE#         1109
  C:0ADBH         LINE#         1110
  C:0ADEH         LINE#         1111
  C:0AF6H         LINE#         1112
  C:0AF6H         LINE#         1113
  C:0AFDH         LINE#         1114
  C:0B00H         LINE#         1115
  C:0B0BH         LINE#         1116
  C:0B16H         LINE#         1117
  C:0B1CH         LINE#         1118
  C:0B1FH         LINE#         1119
  C:0B22H         LINE#         1123
  C:0B29H         LINE#         1124
  C:0B2AH         LINE#         1126
  C:0B2AH         LINE#         1128
  C:0B33H         LINE#         1129
  C:0B3CH         LINE#         1130
  C:0B43H         LINE#         1131
  C:0B5BH         LINE#         1132
  C:0B5BH         LINE#         1133
  C:0B5EH         LINE#         1134
  C:0B5EH         LINE#         1136
  C:0B61H         LINE#         1149
  C:0B61H         LINE#         1150
  C:0B61H         LINE#         1156
  -------         ENDPROC       BALANCESETUP
  -------         PROC          _LEDFLASH
  X:0052H         SYMBOL        count
  X:0053H         SYMBOL        rate
  -------         DO            
  X:0054H         SYMBOL        i
  X:0055H         SYMBOL        j
  -------         ENDDO         
  C:10D1H         LINE#         1158
  C:10D9H         LINE#         1159
  C:10D9H         LINE#         1162
  C:10DDH         LINE#         1163
BL51 BANKED LINKER/LOCATER V6.22.2.0                                                  08/12/2021  12:55:31  PAGE 20


  C:10DDH         LINE#         1164
  C:10EBH         LINE#         1165
  C:10EBH         LINE#         1168
  C:10EDH         LINE#         1169
  C:110CH         LINE#         1170
  C:110FH         LINE#         1171
  C:1111H         LINE#         1172
  C:1132H         LINE#         1173
  C:1135H         LINE#         1174
  C:113DH         LINE#         1175
  C:113DH         LINE#         1176
  C:1145H         LINE#         1177
  C:1145H         LINE#         1178
  C:1153H         LINE#         1179
  C:1153H         LINE#         1182
  C:1155H         LINE#         1183
  C:1174H         LINE#         1184
  C:1177H         LINE#         1185
  C:1179H         LINE#         1186
  C:119AH         LINE#         1187
  C:119DH         LINE#         1188
  C:11A5H         LINE#         1189
  C:11A5H         LINE#         1190
  C:11ADH         LINE#         1191
  C:11ADH         LINE#         1192
  C:11BBH         LINE#         1193
  C:11BBH         LINE#         1196
  C:11BDH         LINE#         1197
  C:11DCH         LINE#         1198
  C:11DEH         LINE#         1199
  C:11FFH         LINE#         1200
  C:1207H         LINE#         1201
  C:1207H         LINE#         1202
  -------         ENDPROC       _LEDFLASH
  -------         ENDMOD        MAIN

  -------         MODULE        ?C_STARTUP
  C:0006H         SEGMENT       ?C_C51STARTUP
  I:0008H         SEGMENT       ?STACK
  C:0000H         PUBLIC        ?C_STARTUP
  D:00E0H         SYMBOL        ACC
  D:00F0H         SYMBOL        B
  D:0083H         SYMBOL        DPH
  D:0082H         SYMBOL        DPL
  N:0000H         SYMBOL        IBPSTACK
  N:0100H         SYMBOL        IBPSTACKTOP
  N:0100H         SYMBOL        IDATALEN
  C:0009H         SYMBOL        IDATALOOP
  N:0000H         SYMBOL        PBPSTACK
  N:0000H         SYMBOL        PBPSTACKTOP
  N:0000H         SYMBOL        PDATALEN
  N:0000H         SYMBOL        PDATASTART
  N:0000H         SYMBOL        PPAGE
  N:0000H         SYMBOL        PPAGEENABLE
  D:00A0H         SYMBOL        PPAGE_SFR
  D:0081H         SYMBOL        SP
  C:0006H         SYMBOL        STARTUP1
BL51 BANKED LINKER/LOCATER V6.22.2.0                                                  08/12/2021  12:55:31  PAGE 21


  N:0000H         SYMBOL        XBPSTACK
  N:0000H         SYMBOL        XBPSTACKTOP
  N:0200H         SYMBOL        XDATALEN
  C:0014H         SYMBOL        XDATALOOP
  N:0000H         SYMBOL        XDATASTART
  C:0000H         LINE#         94
  C:0006H         LINE#         101
  C:0008H         LINE#         102
  C:0009H         LINE#         103
  C:000AH         LINE#         104
  C:000CH         LINE#         108
  C:000FH         LINE#         109
  C:0011H         LINE#         113
  C:0013H         LINE#         115
  C:0014H         LINE#         116
  C:0015H         LINE#         117
  C:0016H         LINE#         118
  C:0018H         LINE#         119
  C:001AH         LINE#         153
  C:001DH         LINE#         157
  -------         ENDMOD        ?C_STARTUP

  -------         MODULE        CALIBRATION
  C:0000H         SYMBOL        _ICE_DUMMY_
  -------         ENDMOD        CALIBRATION

  -------         MODULE        FLASH
  C:1E3CH         SEGMENT       ?PR?REBOOT?FLASH
  C:1F27H         SEGMENT       ?PR?REDOIT?FLASH
  C:1EECH         SEGMENT       ?PR?DISABLERST?FLASH
  C:1DF3H         SEGMENT       ?PR?ERASEDATA?FLASH
  C:00A0H         SEGMENT       ?PR?WRITEFLASH?FLASH
  C:1E56H         SEGMENT       ?PR?_WRITEMAXCOUNT?FLASH
  X:0052H         SEGMENT       ?XD?_WRITEMAXCOUNT?FLASH
  C:1E6FH         SEGMENT       ?PR?_WRITEVOP?FLASH
  X:0052H         SEGMENT       ?XD?_WRITEVOP?FLASH
  C:1E88H         SEGMENT       ?PR?_WRITECAL?FLASH
  X:0052H         SEGMENT       ?XD?_WRITECAL?FLASH
  C:1EA1H         SEGMENT       ?PR?_WRITEONTIMES?FLASH
  X:0052H         SEGMENT       ?XD?_WRITEONTIMES?FLASH
  C:1EBAH         SEGMENT       ?PR?_WRITEMOTORPOSITION?FLASH
  X:0052H         SEGMENT       ?XD?_WRITEMOTORPOSITION?FLASH
  C:1ED3H         SEGMENT       ?PR?_WRITELKBP?FLASH
  X:0052H         SEGMENT       ?XD?_WRITELKBP?FLASH
  C:1CD0H         SEGMENT       ?PR?READMAXCOUNT?FLASH
  C:1CFAH         SEGMENT       ?PR?READVOP?FLASH
  C:1D24H         SEGMENT       ?PR?READCAL?FLASH
  C:1D4EH         SEGMENT       ?PR?READONTIMES?FLASH
  C:1D78H         SEGMENT       ?PR?READMOTORPOSITION?FLASH
  C:1DA2H         SEGMENT       ?PR?READLKBP?FLASH
  X:0072H         SEGMENT       ?XD?FLASH
  C:1EECH         PUBLIC        DISABLERST
  X:0072H         PUBLIC        EEVAL1
  X:0073H         PUBLIC        EEVAL2
  C:1DF3H         PUBLIC        ERASEDATA
  C:1D24H         PUBLIC        READCAL
  C:1DA2H         PUBLIC        READLKBP
BL51 BANKED LINKER/LOCATER V6.22.2.0                                                  08/12/2021  12:55:31  PAGE 22


  C:1CD0H         PUBLIC        READMAXCOUNT
  C:1D78H         PUBLIC        READMOTORPOSITION
  C:1D4EH         PUBLIC        READONTIMES
  C:1CFAH         PUBLIC        READVOP
  C:1E3CH         PUBLIC        REBOOT
  C:1F27H         PUBLIC        REDOIT
  C:00A0H         PUBLIC        WRITEFLASH
  C:1E88H         PUBLIC        _WRITECAL
  C:1ED3H         PUBLIC        _WRITELKBP
  C:1E56H         PUBLIC        _WRITEMAXCOUNT
  C:1EBAH         PUBLIC        _WRITEMOTORPOSITION
  C:1EA1H         PUBLIC        _WRITEONTIMES
  C:1E6FH         PUBLIC        _WRITEVOP
  C:1E50H         SYMBOL        ?C0001
  C:1E3CH         SYMBOL        ?C0006
  C:1E45H         SYMBOL        ?C0007
  C:1E4AH         SYMBOL        ?C0027
  X:0052H         SYMBOL        ?_WRITECAL?BYTE
  X:0052H         SYMBOL        ?_WRITELKBP?BYTE
  X:0052H         SYMBOL        ?_WRITEMAXCOUNT?BYTE
  X:0052H         SYMBOL        ?_WRITEMOTORPOSITION?BYTE
  X:0052H         SYMBOL        ?_WRITEONTIMES?BYTE
  X:0052H         SYMBOL        ?_WRITEVOP?BYTE
  D:00E0H         SYMBOL        ACC
  D:009DH         SYMBOL        ADCCRH
  D:009CH         SYMBOL        ADCCRL
  D:009FH         SYMBOL        ADCDRH
  D:009EH         SYMBOL        ADCDRL
  D:00F7H         SYMBOL        ADWCRH
  D:00F6H         SYMBOL        ADWCRL
  D:00DDH         SYMBOL        ADWIFRH
  D:00DCH         SYMBOL        ADWIFRL
  D:00F2H         SYMBOL        ADWRCR0
  D:00F3H         SYMBOL        ADWRCR1
  D:00F4H         SYMBOL        ADWRCR2
  D:00F5H         SYMBOL        ADWRCR3
  D:00F0H         SYMBOL        B
  D:008CH         SYMBOL        BITCNT
  D:008BH         SYMBOL        BITCR
  D:0097H         SYMBOL        BUZCR
  D:008FH         SYMBOL        BUZDR
  D:0083H         SYMBOL        DPH
  D:0085H         SYMBOL        DPH1
  D:0082H         SYMBOL        DPL
  D:0084H         SYMBOL        DPL1
  X:0052H         SYMBOL        EEDATA?1046
  X:0052H         SYMBOL        EEDATA?541
  X:0052H         SYMBOL        EEDATA?642
  X:0052H         SYMBOL        EEDATA?743
  X:0052H         SYMBOL        EEDATA?844
  X:0052H         SYMBOL        EEDATA?945
  D:00C0H         SYMBOL        EIFLAG0
  D:00B0H         SYMBOL        EIFLAG1
  D:00A5H         SYMBOL        EIPOL0H
  D:00A4H         SYMBOL        EIPOL0L
  D:00A6H         SYMBOL        EIPOL1
  D:00A7H         SYMBOL        EIPOL2
BL51 BANKED LINKER/LOCATER V6.22.2.0                                                  08/12/2021  12:55:31  PAGE 23


  D:00A2H         SYMBOL        EO
  D:00FDH         SYMBOL        FIDR
  N:0000H         SYMBOL        FLASH
  D:00FEH         SYMBOL        FMCR
  D:00FAH         SYMBOL        FSADRH
  D:00FCH         SYMBOL        FSADRL
  D:00FBH         SYMBOL        FSADRM
  D:00E9H         SYMBOL        I2CCR
  D:00ECH         SYMBOL        I2CDR
  D:00EBH         SYMBOL        I2CSAR0
  D:00F1H         SYMBOL        I2CSAR1
  D:00EFH         SYMBOL        I2CSCHR
  D:00EEH         SYMBOL        I2CSCLR
  D:00EDH         SYMBOL        I2CSDHR
  D:00EAH         SYMBOL        I2CSR
  D:00A8H         SYMBOL        IE
  D:00A9H         SYMBOL        IE1
  D:00AAH         SYMBOL        IE2
  D:00ABH         SYMBOL        IE3
  D:00A0H         SYMBOL        IIFLAG
  D:00B8H         SYMBOL        IP
  D:00F8H         SYMBOL        IP1
  D:0086H         SYMBOL        LVICR
  D:00D8H         SYMBOL        LVRCR
  D:00C8H         SYMBOL        OSCCR
  D:0080H         SYMBOL        P0
  B:0080H.0       SYMBOL        P00
  B:0080H.1       SYMBOL        P01
  B:0080H.2       SYMBOL        P02
  B:0080H.3       SYMBOL        P03
  D:00DEH         SYMBOL        P03DB
  B:0080H.4       SYMBOL        P04
  B:0080H.5       SYMBOL        P05
  B:0080H.6       SYMBOL        P06
  B:0080H.7       SYMBOL        P07
  D:00D3H         SYMBOL        P0FSR
  D:00A1H         SYMBOL        P0IO
  D:0091H         SYMBOL        P0OD
  D:00ACH         SYMBOL        P0PU
  D:0088H         SYMBOL        P1
  B:0088H.0       SYMBOL        P10
  B:0088H.1       SYMBOL        P11
  B:0088H.2       SYMBOL        P12
  D:00DFH         SYMBOL        P12DB
  B:0088H.3       SYMBOL        P13
  B:0088H.4       SYMBOL        P14
  B:0088H.5       SYMBOL        P15
  B:0088H.6       SYMBOL        P16
  B:0088H.7       SYMBOL        P17
  D:00D5H         SYMBOL        P1FSRH
  D:00D4H         SYMBOL        P1FSRL
  D:00B1H         SYMBOL        P1IO
  D:0092H         SYMBOL        P1OD
  D:00ADH         SYMBOL        P1PU
  D:0090H         SYMBOL        P2
  B:0090H.0       SYMBOL        P20
  B:0090H.1       SYMBOL        P21
BL51 BANKED LINKER/LOCATER V6.22.2.0                                                  08/12/2021  12:55:31  PAGE 24


  B:0090H.2       SYMBOL        P22
  B:0090H.3       SYMBOL        P23
  B:0090H.4       SYMBOL        P24
  B:0090H.5       SYMBOL        P25
  B:0090H.6       SYMBOL        P26
  B:0090H.7       SYMBOL        P27
  D:00D6H         SYMBOL        P2FSR
  D:00B9H         SYMBOL        P2IO
  D:0093H         SYMBOL        P2OD
  D:00AEH         SYMBOL        P2PU
  D:0098H         SYMBOL        P3
  B:0098H.0       SYMBOL        P30
  B:0098H.1       SYMBOL        P31
  B:0098H.2       SYMBOL        P32
  B:0098H.3       SYMBOL        P33
  B:0098H.4       SYMBOL        P34
  B:0098H.5       SYMBOL        P35
  B:0098H.6       SYMBOL        P36
  B:0098H.7       SYMBOL        P37
  D:00D7H         SYMBOL        P3FSR
  D:00C1H         SYMBOL        P3IO
  D:0094H         SYMBOL        P3OD
  D:00AFH         SYMBOL        P3PU
  D:0087H         SYMBOL        PCON
  C:1E03H         SYMBOL        PGBUFCLR
  D:00D0H         SYMBOL        PSW
  D:00E8H         SYMBOL        RSTFR
  D:008AH         SYMBOL        SCCR
  D:0081H         SYMBOL        SP
  D:00B5H         SYMBOL        SPICR
  D:00B6H         SYMBOL        SPIDR
  D:00B7H         SYMBOL        SPISR
  D:00B4H         SYMBOL        T0CDR
  D:00B3H         SYMBOL        T0CNT
  D:00B2H         SYMBOL        T0CR
  D:00B4H         SYMBOL        T0DR
  D:00BDH         SYMBOL        T1ADRH
  D:00BCH         SYMBOL        T1ADRL
  D:00BFH         SYMBOL        T1BDRH
  D:00BEH         SYMBOL        T1BDRL
  D:00BBH         SYMBOL        T1CRH
  D:00BAH         SYMBOL        T1CRL
  D:00C5H         SYMBOL        T2ADRH
  D:00C4H         SYMBOL        T2ADRL
  D:00C7H         SYMBOL        T2BDRH
  D:00C6H         SYMBOL        T2BDRL
  D:00C3H         SYMBOL        T2CRH
  D:00C2H         SYMBOL        T2CRL
  D:00E6H         SYMBOL        UARTBD
  D:00E2H         SYMBOL        UARTCR1
  D:00E3H         SYMBOL        UARTCR2
  D:00E4H         SYMBOL        UARTCR3
  D:00E7H         SYMBOL        UARTDR
  D:00E5H         SYMBOL        UARTST
  D:008EH         SYMBOL        WDTCNT
  D:008DH         SYMBOL        WDTCR
  D:008EH         SYMBOL        WDTDR
BL51 BANKED LINKER/LOCATER V6.22.2.0                                                  08/12/2021  12:55:31  PAGE 25


  D:0089H         SYMBOL        WTCNT
  D:0096H         SYMBOL        WTCR
  D:0089H         SYMBOL        WTDR
  C:1E3CH         LINE#         265
  C:1E3FH         LINE#         269
  C:1E42H         LINE#         275
  C:1E43H         LINE#         276
  C:1E44H         LINE#         277
  C:1E45H         LINE#         279
  C:1E46H         LINE#         280
  C:1E49H         LINE#         281
  C:1E4AH         LINE#         283
  C:1E4DH         LINE#         284
  C:1E50H         LINE#         289
  C:1E53H         LINE#         293
  C:1F27H         LINE#         307
  C:1F2AH         LINE#         311
  C:1EECH         LINE#         325
  C:1EEFH         LINE#         327
  C:1EF2H         LINE#         329
  C:1EF5H         LINE#         331
  C:1EF6H         LINE#         333
  C:1EF9H         LINE#         335
  C:1EFAH         LINE#         337
  C:1EFDH         LINE#         341
  C:1DF3H         LINE#         356
  C:1DF6H         LINE#         358
  C:1DF7H         LINE#         360
  C:1DF8H         LINE#         362
  C:1DF9H         LINE#         364
  C:1DFBH         LINE#         366
  C:1DFDH         LINE#         368
  C:1E00H         LINE#         370
  C:1E03H         LINE#         372
  C:1E04H         LINE#         374
  C:1E05H         LINE#         376
  C:1E07H         LINE#         378
  C:1E0AH         LINE#         380
  C:1E0DH         LINE#         382
  C:1E10H         LINE#         384
  C:1E13H         LINE#         386
  C:1E16H         LINE#         388
  C:1E17H         LINE#         390
  C:1E18H         LINE#         392
  C:1E19H         LINE#         396
  C:00A0H         LINE#         410
  C:00A3H         LINE#         412
  C:00A6H         LINE#         414
  C:00A9H         LINE#         416
  C:00ACH         LINE#         418
  C:00AFH         LINE#         420
  C:00B0H         LINE#         422
  C:00B1H         LINE#         424
  C:00B2H         LINE#         428
  C:1E56H         LINE#         439
  C:1E59H         LINE#         440
  C:1E5AH         LINE#         441
BL51 BANKED LINKER/LOCATER V6.22.2.0                                                  08/12/2021  12:55:31  PAGE 26


  C:1E5BH         LINE#         442
  C:1E5CH         LINE#         443
  C:1E5DH         LINE#         444
  C:1E5EH         LINE#         449
  C:1E5FH         LINE#         451
  C:1E62H         LINE#         453
  C:1E65H         LINE#         455
  C:1E66H         LINE#         457
  C:1E67H         LINE#         459
  C:1E6AH         LINE#         461
  C:1E6DH         LINE#         463
  C:1E6EH         LINE#         467
  C:1E6FH         LINE#         477
  C:1E72H         LINE#         478
  C:1E73H         LINE#         479
  C:1E74H         LINE#         480
  C:1E75H         LINE#         481
  C:1E76H         LINE#         482
  C:1E77H         LINE#         487
  C:1E78H         LINE#         489
  C:1E7BH         LINE#         491
  C:1E7EH         LINE#         493
  C:1E7FH         LINE#         495
  C:1E80H         LINE#         497
  C:1E83H         LINE#         499
  C:1E86H         LINE#         501
  C:1E87H         LINE#         505
  C:1E88H         LINE#         515
  C:1E8BH         LINE#         516
  C:1E8CH         LINE#         517
  C:1E8DH         LINE#         518
  C:1E8EH         LINE#         519
  C:1E8FH         LINE#         520
  C:1E90H         LINE#         525
  C:1E91H         LINE#         527
  C:1E94H         LINE#         529
  C:1E97H         LINE#         531
  C:1E98H         LINE#         533
  C:1E99H         LINE#         535
  C:1E9CH         LINE#         537
  C:1E9FH         LINE#         539
  C:1EA0H         LINE#         543
  C:1EA1H         LINE#         553
  C:1EA4H         LINE#         554
  C:1EA5H         LINE#         555
  C:1EA6H         LINE#         556
  C:1EA7H         LINE#         557
  C:1EA8H         LINE#         558
  C:1EA9H         LINE#         563
  C:1EAAH         LINE#         565
  C:1EADH         LINE#         567
  C:1EB0H         LINE#         569
  C:1EB1H         LINE#         571
  C:1EB2H         LINE#         573
  C:1EB5H         LINE#         575
  C:1EB8H         LINE#         577
  C:1EB9H         LINE#         581
BL51 BANKED LINKER/LOCATER V6.22.2.0                                                  08/12/2021  12:55:31  PAGE 27


  C:1EBAH         LINE#         591
  C:1EBDH         LINE#         592
  C:1EBEH         LINE#         593
  C:1EBFH         LINE#         594
  C:1EC0H         LINE#         595
  C:1EC1H         LINE#         596
  C:1EC2H         LINE#         601
  C:1EC3H         LINE#         603
  C:1EC6H         LINE#         605
  C:1EC9H         LINE#         607
  C:1ECAH         LINE#         609
  C:1ECBH         LINE#         611
  C:1ECEH         LINE#         613
  C:1ED1H         LINE#         615
  C:1ED2H         LINE#         619
  C:1ED3H         LINE#         630
  C:1ED6H         LINE#         631
  C:1ED7H         LINE#         632
  C:1ED8H         LINE#         633
  C:1ED9H         LINE#         634
  C:1EDAH         LINE#         635
  C:1EDBH         LINE#         640
  C:1EDCH         LINE#         642
  C:1EDFH         LINE#         644
  C:1EE2H         LINE#         646
  C:1EE3H         LINE#         648
  C:1EE4H         LINE#         650
  C:1EE7H         LINE#         652
  C:1EEAH         LINE#         654
  C:1EEBH         LINE#         658
  C:1CD0H         LINE#         673
  C:1CD2H         LINE#         675
  C:1CD5H         LINE#         677
  C:1CD8H         LINE#         679
  C:1CD9H         LINE#         681
  C:1CDCH         LINE#         683
  C:1CDDH         LINE#         685
  C:1CDFH         LINE#         687
  C:1CE2H         LINE#         689
  C:1CE5H         LINE#         691
  C:1CE6H         LINE#         693
  C:1CE9H         LINE#         695
  C:1CEAH         LINE#         699
  C:1CEDH         LINE#         700
  C:1CEEH         LINE#         701
  C:1CEFH         LINE#         702
  C:1CF0H         LINE#         703
  C:1CF1H         LINE#         704
  C:1CF3H         LINE#         705
  C:1CF5H         LINE#         706
  C:1CF6H         LINE#         707
  C:1CF7H         LINE#         708
  C:1CF8H         LINE#         709
  C:1CF9H         LINE#         712
  C:1CFAH         LINE#         726
  C:1CFCH         LINE#         728
  C:1CFFH         LINE#         730
BL51 BANKED LINKER/LOCATER V6.22.2.0                                                  08/12/2021  12:55:31  PAGE 28


  C:1D02H         LINE#         732
  C:1D03H         LINE#         734
  C:1D06H         LINE#         736
  C:1D07H         LINE#         738
  C:1D09H         LINE#         740
  C:1D0CH         LINE#         742
  C:1D0FH         LINE#         744
  C:1D10H         LINE#         746
  C:1D13H         LINE#         748
  C:1D14H         LINE#         752
  C:1D17H         LINE#         753
  C:1D18H         LINE#         754
  C:1D19H         LINE#         755
  C:1D1AH         LINE#         756
  C:1D1BH         LINE#         757
  C:1D1DH         LINE#         758
  C:1D1FH         LINE#         759
  C:1D20H         LINE#         760
  C:1D21H         LINE#         761
  C:1D22H         LINE#         762
  C:1D23H         LINE#         765
  C:1D24H         LINE#         779
  C:1D26H         LINE#         781
  C:1D29H         LINE#         783
  C:1D2CH         LINE#         785
  C:1D2DH         LINE#         787
  C:1D30H         LINE#         789
  C:1D31H         LINE#         791
  C:1D33H         LINE#         793
  C:1D36H         LINE#         795
  C:1D39H         LINE#         797
  C:1D3AH         LINE#         799
  C:1D3DH         LINE#         801
  C:1D3EH         LINE#         805
  C:1D41H         LINE#         806
  C:1D42H         LINE#         807
  C:1D43H         LINE#         808
  C:1D44H         LINE#         809
  C:1D45H         LINE#         810
  C:1D47H         LINE#         811
  C:1D49H         LINE#         812
  C:1D4AH         LINE#         813
  C:1D4BH         LINE#         814
  C:1D4CH         LINE#         815
  C:1D4DH         LINE#         818
  C:1D4EH         LINE#         832
  C:1D50H         LINE#         834
  C:1D53H         LINE#         836
  C:1D56H         LINE#         838
  C:1D57H         LINE#         840
  C:1D5AH         LINE#         842
  C:1D5BH         LINE#         844
  C:1D5DH         LINE#         846
  C:1D60H         LINE#         848
  C:1D63H         LINE#         850
  C:1D64H         LINE#         852
  C:1D67H         LINE#         854
BL51 BANKED LINKER/LOCATER V6.22.2.0                                                  08/12/2021  12:55:31  PAGE 29


  C:1D68H         LINE#         858
  C:1D6BH         LINE#         859
  C:1D6CH         LINE#         860
  C:1D6DH         LINE#         861
  C:1D6EH         LINE#         862
  C:1D6FH         LINE#         863
  C:1D71H         LINE#         864
  C:1D73H         LINE#         865
  C:1D74H         LINE#         866
  C:1D75H         LINE#         867
  C:1D76H         LINE#         868
  C:1D77H         LINE#         871
  C:1D78H         LINE#         884
  C:1D7AH         LINE#         886
  C:1D7DH         LINE#         888
  C:1D80H         LINE#         890
  C:1D81H         LINE#         892
  C:1D84H         LINE#         894
  C:1D85H         LINE#         896
  C:1D87H         LINE#         898
  C:1D8AH         LINE#         900
  C:1D8DH         LINE#         902
  C:1D8EH         LINE#         904
  C:1D91H         LINE#         906
  C:1D92H         LINE#         910
  C:1D95H         LINE#         911
  C:1D96H         LINE#         912
  C:1D97H         LINE#         913
  C:1D98H         LINE#         914
  C:1D99H         LINE#         915
  C:1D9BH         LINE#         916
  C:1D9DH         LINE#         917
  C:1D9EH         LINE#         918
  C:1D9FH         LINE#         919
  C:1DA0H         LINE#         920
  C:1DA1H         LINE#         923
  C:1DA2H         LINE#         937
  C:1DA4H         LINE#         939
  C:1DA7H         LINE#         941
  C:1DAAH         LINE#         943
  C:1DABH         LINE#         945
  C:1DAEH         LINE#         947
  C:1DAFH         LINE#         949
  C:1DB1H         LINE#         951
  C:1DB4H         LINE#         953
  C:1DB7H         LINE#         955
  C:1DB8H         LINE#         957
  C:1DBBH         LINE#         959
  C:1DBCH         LINE#         963
  C:1DBFH         LINE#         964
  C:1DC0H         LINE#         965
  C:1DC1H         LINE#         966
  C:1DC2H         LINE#         967
  C:1DC3H         LINE#         968
  C:1DC5H         LINE#         969
  C:1DC7H         LINE#         970
  C:1DC8H         LINE#         971
BL51 BANKED LINKER/LOCATER V6.22.2.0                                                  08/12/2021  12:55:31  PAGE 30


  C:1DC9H         LINE#         972
  C:1DCAH         LINE#         973
  C:1DCBH         LINE#         976
  -------         ENDMOD        FLASH

  -------         MODULE        MOTOR
  C:0000H         SYMBOL        _ICE_DUMMY_
  C:18F9H         PUBLIC        MotorMove
  C:1208H         PUBLIC        _motor
  B:0090H.4       PUBLIC        P24
  B:0090H.5       PUBLIC        P25
  B:0090H.6       PUBLIC        P26
  C:1C58H         PUBLIC        _MoveToPosition
  B:0098H.6       PUBLIC        P36
  -------         PROC          _MOVETOPOSITION
  X:0052H         SYMBOL        position
  C:1C58H         LINE#         24
  C:1C60H         LINE#         25
  C:1C60H         LINE#         26
  C:1C65H         LINE#         27
  C:1C75H         LINE#         28
  C:1C81H         LINE#         29
  C:1C81H         LINE#         30
  C:1C84H         LINE#         31
  C:1C93H         LINE#         32
  C:1C93H         LINE#         33
  -------         ENDPROC       _MOVETOPOSITION
  -------         PROC          MOTORMOVE
  C:18F9H         LINE#         35
  C:18F9H         LINE#         36
  C:18F9H         LINE#         38
  C:1914H         LINE#         39
  C:1924H         LINE#         40
  C:1939H         LINE#         41
  C:1940H         LINE#         43
  C:1950H         LINE#         46
  C:1965H         LINE#         47
  C:1965H         LINE#         58
  C:1967H         LINE#         59
  C:1969H         LINE#         60
  C:197EH         LINE#         61
  C:197EH         LINE#         72
  C:1980H         LINE#         73
  C:1982H         LINE#         74
  C:1987H         LINE#         75
  -------         ENDPROC       MOTORMOVE
  -------         PROC          _MOTOR
  X:0054H         SYMBOL        mtrstate
  -------         DO            
  X:0055H         SYMBOL        i
  -------         ENDDO         
  C:1208H         LINE#         77
  C:120DH         LINE#         78
  C:120DH         LINE#         81
  C:1212H         LINE#         82
  C:1224H         LINE#         83
  C:1224H         LINE#         86
BL51 BANKED LINKER/LOCATER V6.22.2.0                                                  08/12/2021  12:55:31  PAGE 31


  C:1224H         LINE#         87
  C:122AH         LINE#         88
  C:122FH         LINE#         90
  C:1231H         LINE#         92
  C:1233H         LINE#         93
  C:1235H         LINE#         94
  C:1242H         LINE#         95
  C:1244H         LINE#         97
  C:1244H         LINE#         98
  C:1249H         LINE#         99
  C:124EH         LINE#         101
  C:1250H         LINE#         103
  C:1252H         LINE#         104
  C:1254H         LINE#         105
  C:1275H         LINE#         106
  C:128DH         LINE#         107
  C:128DH         LINE#         109
  C:128DH         LINE#         110
  C:1292H         LINE#         111
  C:129FH         LINE#         112
  C:12A4H         LINE#         113
  C:12A6H         LINE#         114
  C:12A8H         LINE#         115
  C:12C9H         LINE#         117
  C:12CBH         LINE#         119
  C:12D0H         LINE#         120
  C:12D4H         LINE#         123
  C:12D6H         LINE#         124
  C:12D6H         LINE#         125
  C:12D8H         LINE#         126
  C:12D8H         LINE#         128
  C:12DAH         LINE#         130
  C:12DCH         LINE#         131
  C:12DEH         LINE#         132
  C:12E3H         LINE#         133
  C:12E7H         LINE#         134
  C:12F6H         LINE#         135
  C:12F6H         LINE#         136
  -------         ENDPROC       _MOTOR
  -------         ENDMOD        MOTOR

  -------         MODULE        TEMPERATURE
  C:0000H         SYMBOL        _ICE_DUMMY_
  X:0062H         PUBLIC        deltat
  C:17D8H         PUBLIC        readMotorCurrentAD
  C:1A11H         PUBLIC        Temptable
  D:009FH         PUBLIC        ADCDRH
  X:0064H         PUBLIC        motorCurrVoltage
  D:009CH         PUBLIC        ADCCRL
  D:009EH         PUBLIC        ADCDRL
  B:0098H.6       PUBLIC        P36
  X:0066H         PUBLIC        sensor1
  X:0068H         PUBLIC        sensor2
  X:006AH         PUBLIC        returntemp
  C:04BCH         PUBLIC        readad
  X:006CH         PUBLIC        ken1
  X:006EH         PUBLIC        ken2
BL51 BANKED LINKER/LOCATER V6.22.2.0                                                  08/12/2021  12:55:31  PAGE 32


  X:0070H         PUBLIC        flowtemp
  -------         PROC          READMOTORCURRENTAD
  -------         DO            
  X:0052H         SYMBOL        adcnt
  X:0053H         SYMBOL        adtemp
  X:0055H         SYMBOL        temp11
  -------         ENDDO         
  C:17D8H         LINE#         46
  C:17D8H         LINE#         47
  C:17D8H         LINE#         48
  C:17DDH         LINE#         49
  C:17E1H         LINE#         50
  C:17E9H         LINE#         52
  C:17E9H         LINE#         53
  C:17ECH         LINE#         54
  C:17F1H         LINE#         55
  C:1800H         LINE#         56
  C:1806H         LINE#         57
  C:1832H         LINE#         59
  C:1838H         LINE#         60
  C:1853H         LINE#         63
  C:1869H         LINE#         64
  -------         ENDPROC       READMOTORCURRENTAD
  -------         PROC          READAD
  -------         DO            
  X:0052H         SYMBOL        adcnt
  X:0053H         SYMBOL        adtemp
  X:0055H         SYMBOL        adtemp1
  X:0057H         SYMBOL        temp11
  -------         ENDDO         
  C:04BCH         LINE#         66
  C:04BCH         LINE#         67
  C:04BCH         LINE#         69
  C:04C1H         LINE#         70
  C:04C7H         LINE#         71
  C:04CFH         LINE#         73
  C:04CFH         LINE#         77
  C:04D2H         LINE#         78
  C:04D7H         LINE#         79
  C:04E6H         LINE#         80
  C:04ECH         LINE#         81
  C:051AH         LINE#         83
  C:0520H         LINE#         84
  C:053BH         LINE#         85
  C:0543H         LINE#         86
  C:0559H         LINE#         87
  C:0559H         LINE#         88
  C:057FH         LINE#         89
  C:057FH         LINE#         90
  C:0592H         LINE#         91
  C:05E3H         LINE#         92
  C:05EFH         LINE#         93
  C:05F5H         LINE#         94
  C:05F5H         LINE#         95
  C:05FEH         LINE#         96
  C:0603H         LINE#         97
  C:0607H         LINE#         98
BL51 BANKED LINKER/LOCATER V6.22.2.0                                                  08/12/2021  12:55:31  PAGE 33


  C:060BH         LINE#         99
  C:0613H         LINE#         101
  C:0613H         LINE#         105
  C:0616H         LINE#         106
  C:061BH         LINE#         107
  C:062AH         LINE#         108
  C:0630H         LINE#         109
  C:065EH         LINE#         111
  C:0664H         LINE#         112
  C:067FH         LINE#         114
  C:0687H         LINE#         115
  C:069DH         LINE#         116
  C:069DH         LINE#         117
  C:06C3H         LINE#         118
  C:06C3H         LINE#         119
  C:06D6H         LINE#         120
  C:0727H         LINE#         121
  C:0733H         LINE#         122
  C:0739H         LINE#         123
  C:0739H         LINE#         124
  C:0742H         LINE#         126
  C:077AH         LINE#         127
  C:077AH         LINE#         129
  C:0787H         LINE#         130
  C:0787H         LINE#         131
  C:0789H         LINE#         132
  C:07A1H         LINE#         133
  C:07A1H         LINE#         134
  C:07A3H         LINE#         136
  C:07A3H         LINE#         137
  C:07B2H         LINE#         138
  C:07B2H         LINE#         139
  C:07B3H         LINE#         140
  C:07B8H         LINE#         143
  C:07BAH         LINE#         144
  C:07BAH         LINE#         145
  C:07BAH         LINE#         147
  C:07DBH         LINE#         148
  C:07DBH         LINE#         149
  C:07E1H         LINE#         150
  C:07E6H         LINE#         151
  C:07E8H         LINE#         152
  C:07FDH         LINE#         153
  C:07FDH         LINE#         154
  C:0802H         LINE#         155
  C:0807H         LINE#         156
  C:0807H         LINE#         162
  C:080FH         LINE#         163
  C:080FH         LINE#         165
  C:081EH         LINE#         166
  C:0825H         LINE#         167
  C:0825H         LINE#         168
  C:0827H         LINE#         169
  C:082FH         LINE#         170
  C:082FH         LINE#         171
  C:083EH         LINE#         172
  C:084DH         LINE#         173
BL51 BANKED LINKER/LOCATER V6.22.2.0                                                  08/12/2021  12:55:31  PAGE 34


  C:0868H         LINE#         174
  C:0868H         LINE#         175
  -------         ENDPROC       READAD
  -------         ENDMOD        TEMPERATURE

  -------         MODULE        TEST
  C:0000H         SYMBOL        _ICE_DUMMY_
  X:0074H         PUBLIC        temperr
  D:008DH         PUBLIC        WDTCR
  D:008EH         PUBLIC        WDTDR
  C:1C94H         PUBLIC        PCBtest
  C:1F1EH         PUBLIC        WDTinit
  C:15A1H         PUBLIC        PCBTest1
  B:0090H.4       PUBLIC        P24
  B:0090H.5       PUBLIC        P25
  B:0090H.6       PUBLIC        P26
  B:0098H.6       PUBLIC        P36
  C:1F2BH         PUBLIC        ClearWDT
  -------         PROC          CLEARWDT
  C:1F2BH         LINE#         16
  C:1F2BH         LINE#         17
  C:1F2BH         LINE#         18
  C:1F2EH         LINE#         19
  -------         ENDPROC       CLEARWDT
  -------         PROC          WDTINIT
  C:1F1EH         LINE#         21
  C:1F1EH         LINE#         22
  C:1F1EH         LINE#         24
  C:1F21H         LINE#         25
  C:1F24H         LINE#         26
  -------         ENDPROC       WDTINIT
  -------         PROC          PCBTEST1
  C:15A1H         LINE#         29
  C:15A1H         LINE#         30
  C:15A1H         LINE#         31
  C:15A9H         LINE#         32
  C:15A9H         LINE#         33
  C:15AEH         LINE#         36
  C:15B0H         LINE#         37
  C:15B0H         LINE#         38
  C:15BDH         LINE#         39
  C:15BDH         LINE#         40
  C:15C0H         LINE#         41
  C:15FAH         LINE#         42
  C:15FAH         LINE#         43
  C:1600H         LINE#         44
  C:1600H         LINE#         45
  C:1617H         LINE#         46
  C:161DH         LINE#         47
  C:161DH         LINE#         48
  C:161DH         LINE#         49
  C:161DH         LINE#         50
  C:162DH         LINE#         51
  C:1638H         LINE#         52
  C:1638H         LINE#         54
  C:163AH         LINE#         56
  C:163CH         LINE#         57
BL51 BANKED LINKER/LOCATER V6.22.2.0                                                  08/12/2021  12:55:31  PAGE 35


  C:163EH         LINE#         58
  C:163EH         LINE#         59
  C:1644H         LINE#         60
  C:1644H         LINE#         62
  C:1646H         LINE#         64
  C:1648H         LINE#         65
  C:164AH         LINE#         66
  C:164AH         LINE#         67
  C:1650H         LINE#         68
  C:1650H         LINE#         70
  C:1652H         LINE#         72
  C:1654H         LINE#         73
  C:1656H         LINE#         74
  C:1656H         LINE#         76
  C:165CH         LINE#         77
  C:165CH         LINE#         79
  C:165EH         LINE#         81
  C:1660H         LINE#         82
  C:1662H         LINE#         83
  C:1662H         LINE#         84
  -------         ENDPROC       PCBTEST1
  -------         PROC          PCBTEST
  C:1C94H         LINE#         87
  C:1C94H         LINE#         88
  C:1C94H         LINE#         89
  C:1C99H         LINE#         90
  C:1CB0H         LINE#         91
  C:1CC9H         LINE#         92
  C:1CCFH         LINE#         93
  -------         ENDPROC       PCBTEST
  -------         ENDMOD        TEST

  -------         MODULE        TIMER
  C:0000H         SYMBOL        _ICE_DUMMY_
  C:1BBBH         PUBLIC        _TimerReset
  C:1A89H         PUBLIC        _TimerStart
  C:13E0H         PUBLIC        TimerPoll
  -------         PROC          TIMERPOLL
  -------         DO            
  X:0075H         SYMBOL        idx
  -------         ENDDO         
  C:13E0H         LINE#         18
  C:13E0H         LINE#         19
  C:13E0H         LINE#         21
  C:13E3H         LINE#         22
  C:13F9H         LINE#         23
  C:13F9H         LINE#         24
  C:140FH         LINE#         25
  C:140FH         LINE#         26
  C:1422H         LINE#         27
  C:1452H         LINE#         28
  C:1477H         LINE#         29
  C:1477H         LINE#         30
  C:1490H         LINE#         31
  C:14A5H         LINE#         32
  C:14B7H         LINE#         33
  C:14B7H         LINE#         34
BL51 BANKED LINKER/LOCATER V6.22.2.0                                                  08/12/2021  12:55:31  PAGE 36


  C:14B7H         LINE#         35
  C:14C0H         LINE#         36
  -------         ENDPROC       TIMERPOLL
  -------         PROC          _TIMERSTART
  D:0007H         SYMBOL        idx
  D:0001H         SYMBOL        callbackFunction
  X:005FH         SYMBOL        msecs
  X:0061H         SYMBOL        mode
  C:1A89H         LINE#         38
  C:1A89H         LINE#         39
  C:1A89H         LINE#         40
  C:1A9FH         LINE#         41
  C:1ABAH         LINE#         42
  C:1ACCH         LINE#         43
  C:1AE1H         LINE#         44
  C:1AF1H         LINE#         45
  -------         ENDPROC       _TIMERSTART
  -------         PROC          _TIMERRESET
  D:0007H         SYMBOL        idx
  C:1BBBH         LINE#         47
  C:1BBBH         LINE#         48
  C:1BBBH         LINE#         49
  C:1BCFH         LINE#         50
  C:1BDFH         LINE#         51
  C:1BF1H         LINE#         52
  C:1C01H         LINE#         53
  C:1C16H         LINE#         54
  -------         ENDPROC       _TIMERRESET
  -------         ENDMOD        TIMER

  -------         MODULE        ?C?CLDOPTR
  C:0E3DH         PUBLIC        ?C?CLDOPTR
  -------         ENDMOD        ?C?CLDOPTR

  -------         MODULE        ?C?IMUL
  C:0E6AH         PUBLIC        ?C?IMUL
  -------         ENDMOD        ?C?IMUL

  -------         MODULE        ?C?UIDIV
  C:0E7CH         PUBLIC        ?C?UIDIV
  -------         ENDMOD        ?C?UIDIV

  -------         MODULE        ?C?SIDIV
  C:0ED1H         PUBLIC        ?C?SIDIV
  -------         ENDMOD        ?C?SIDIV

  -------         MODULE        ?C?IILDX
  C:0F07H         PUBLIC        ?C?IILDX
  -------         ENDMOD        ?C?IILDX

  -------         MODULE        ?C?SLCMP
  C:0F1DH         PUBLIC        ?C?SLCMP
  -------         ENDMOD        ?C?SLCMP

  -------         MODULE        ?C?SLSHR
  C:0F33H         PUBLIC        ?C?SLSHR
  -------         ENDMOD        ?C?SLSHR
BL51 BANKED LINKER/LOCATER V6.22.2.0                                                  08/12/2021  12:55:31  PAGE 37



  -------         MODULE        ?C?LSTXDATA
  C:0F47H         PUBLIC        ?C?LSTXDATA
  -------         ENDMOD        ?C?LSTXDATA

  -------         MODULE        ?C?LSTKXDATA
  C:0F53H         PUBLIC        ?C?LSTKXDATA
  -------         ENDMOD        ?C?LSTKXDATA

  -------         MODULE        ?C?ICALL
  C:0F84H         PUBLIC        ?C?ICALL
  C:0F88H         PUBLIC        ?C?ICALL2
  -------         ENDMOD        ?C?ICALL

Program Size: data=9.0 xdata=118 code=7983
LINK/LOCATE RUN COMPLETE.  0 WARNING(S),  0 ERROR(S)
